{
  "contractName": "ForumApp",
  "abi": [
    {
      "anonymous": false,
      "inputs": [
        {
          "indexed": false,
          "internalType": "uint256",
          "name": "catId",
          "type": "uint256"
        }
      ],
      "name": "OnCatAdded",
      "type": "event"
    },
    {
      "anonymous": false,
      "inputs": [
        {
          "indexed": false,
          "internalType": "uint256",
          "name": "postId",
          "type": "uint256"
        }
      ],
      "name": "OnPostAdded",
      "type": "event"
    },
    {
      "anonymous": false,
      "inputs": [
        {
          "indexed": false,
          "internalType": "uint256",
          "name": "userId",
          "type": "uint256"
        }
      ],
      "name": "OnUserAdded",
      "type": "event"
    },
    {
      "constant": false,
      "inputs": [
        {
          "internalType": "string",
          "name": "id",
          "type": "string"
        },
        {
          "internalType": "string",
          "name": "category",
          "type": "string"
        },
        {
          "internalType": "string",
          "name": "title",
          "type": "string"
        },
        {
          "internalType": "string",
          "name": "content",
          "type": "string"
        }
      ],
      "name": "addPost",
      "outputs": [],
      "payable": false,
      "stateMutability": "nonpayable",
      "type": "function"
    },
    {
      "constant": true,
      "inputs": [],
      "name": "getPostLength",
      "outputs": [
        {
          "internalType": "uint256",
          "name": "length",
          "type": "uint256"
        }
      ],
      "payable": false,
      "stateMutability": "view",
      "type": "function"
    },
    {
      "constant": true,
      "inputs": [
        {
          "internalType": "uint256",
          "name": "idx",
          "type": "uint256"
        }
      ],
      "name": "getPosts",
      "outputs": [
        {
          "internalType": "string",
          "name": "id",
          "type": "string"
        },
        {
          "internalType": "string",
          "name": "category",
          "type": "string"
        },
        {
          "internalType": "string",
          "name": "title",
          "type": "string"
        },
        {
          "internalType": "string",
          "name": "content",
          "type": "string"
        }
      ],
      "payable": false,
      "stateMutability": "view",
      "type": "function"
    },
    {
      "constant": false,
      "inputs": [
        {
          "internalType": "string",
          "name": "category",
          "type": "string"
        }
      ],
      "name": "addCategory",
      "outputs": [],
      "payable": false,
      "stateMutability": "nonpayable",
      "type": "function"
    },
    {
      "constant": true,
      "inputs": [],
      "name": "getCategoryLength",
      "outputs": [
        {
          "internalType": "uint256",
          "name": "length",
          "type": "uint256"
        }
      ],
      "payable": false,
      "stateMutability": "view",
      "type": "function"
    },
    {
      "constant": true,
      "inputs": [
        {
          "internalType": "uint256",
          "name": "idx",
          "type": "uint256"
        }
      ],
      "name": "getCategorys",
      "outputs": [
        {
          "internalType": "string",
          "name": "category",
          "type": "string"
        }
      ],
      "payable": false,
      "stateMutability": "view",
      "type": "function"
    },
    {
      "constant": false,
      "inputs": [
        {
          "internalType": "string",
          "name": "addr",
          "type": "string"
        },
        {
          "internalType": "string",
          "name": "name",
          "type": "string"
        }
      ],
      "name": "addUser",
      "outputs": [],
      "payable": false,
      "stateMutability": "nonpayable",
      "type": "function"
    },
    {
      "constant": true,
      "inputs": [],
      "name": "getUserLength",
      "outputs": [
        {
          "internalType": "uint256",
          "name": "length",
          "type": "uint256"
        }
      ],
      "payable": false,
      "stateMutability": "view",
      "type": "function"
    },
    {
      "constant": true,
      "inputs": [
        {
          "internalType": "uint256",
          "name": "idx",
          "type": "uint256"
        }
      ],
      "name": "getUsers",
      "outputs": [
        {
          "internalType": "string",
          "name": "addr",
          "type": "string"
        },
        {
          "internalType": "string",
          "name": "name",
          "type": "string"
        }
      ],
      "payable": false,
      "stateMutability": "view",
      "type": "function"
    }
  ],
  "bytecode": "0x608060405234801561001057600080fd5b5061127f806100206000396000f3fe608060405234801561001057600080fd5b50600436106100935760003560e01c80635d73ab9a116100665780635d73ab9a146107105780637456fed614610823578063d597ad2914610841578063e6d25fbb1461085f578063f2d6f9f81461090657610093565b8063079eaf34146100985780631d45cddc146101ea5780632e0dcbf7146103d55780634c57e97a14610490575b600080fd5b6101e8600480360360408110156100ae57600080fd5b81019080803590602001906401000000008111156100cb57600080fd5b8201836020820111156100dd57600080fd5b803590602001918460018302840111640100000000831117156100ff57600080fd5b91908080601f016020809104026020016040519081016040528093929190818152602001838380828437600081840152601f19601f8201169050808301925050505050505091929192908035906020019064010000000081111561016257600080fd5b82018360208201111561017457600080fd5b8035906020019184600183028401116401000000008311171561019657600080fd5b91908080601f016020809104026020016040519081016040528093929190818152602001838380828437600081840152601f19601f820116905080830192505050505050509192919290505050610924565b005b6102166004803603602081101561020057600080fd5b81019080803590602001909291905050506109f0565b6040518080602001806020018060200180602001858103855289818151815260200191508051906020019080838360005b83811015610262578082015181840152602081019050610247565b50505050905090810190601f16801561028f5780820380516001836020036101000a031916815260200191505b50858103845288818151815260200191508051906020019080838360005b838110156102c85780820151818401526020810190506102ad565b50505050905090810190601f1680156102f55780820380516001836020036101000a031916815260200191505b50858103835287818151815260200191508051906020019080838360005b8381101561032e578082015181840152602081019050610313565b50505050905090810190601f16801561035b5780820380516001836020036101000a031916815260200191505b50858103825286818151815260200191508051906020019080838360005b83811015610394578082015181840152602081019050610379565b50505050905090810190601f1680156103c15780820380516001836020036101000a031916815260200191505b509850505050505050505060405180910390f35b61048e600480360360208110156103eb57600080fd5b810190808035906020019064010000000081111561040857600080fd5b82018360208201111561041a57600080fd5b8035906020019184600183028401116401000000008311171561043c57600080fd5b91908080601f016020809104026020016040519081016040528093929190818152602001838380828437600081840152601f19601f820116905080830192505050505050509192919290505050610cde565b005b61070e600480360360808110156104a657600080fd5b81019080803590602001906401000000008111156104c357600080fd5b8201836020820111156104d557600080fd5b803590602001918460018302840111640100000000831117156104f757600080fd5b91908080601f016020809104026020016040519081016040528093929190818152602001838380828437600081840152601f19601f8201169050808301925050505050505091929192908035906020019064010000000081111561055a57600080fd5b82018360208201111561056c57600080fd5b8035906020019184600183028401116401000000008311171561058e57600080fd5b91908080601f016020809104026020016040519081016040528093929190818152602001838380828437600081840152601f19601f820116905080830192505050505050509192919290803590602001906401000000008111156105f157600080fd5b82018360208201111561060357600080fd5b8035906020019184600183028401116401000000008311171561062557600080fd5b91908080601f016020809104026020016040519081016040528093929190818152602001838380828437600081840152601f19601f8201169050808301925050505050505091929192908035906020019064010000000081111561068857600080fd5b82018360208201111561069a57600080fd5b803590602001918460018302840111640100000000831117156106bc57600080fd5b91908080601f016020809104026020016040519081016040528093929190818152602001838380828437600081840152601f19601f820116905080830192505050505050509192919290505050610d5e565b005b61073c6004803603602081101561072657600080fd5b8101908080359060200190929190505050610e73565b604051808060200180602001838103835285818151815260200191508051906020019080838360005b83811015610780578082015181840152602081019050610765565b50505050905090810190601f1680156107ad5780820380516001836020036101000a031916815260200191505b50838103825284818151815260200191508051906020019080838360005b838110156107e65780820151818401526020810190506107cb565b50505050905090810190601f1680156108135780820380516001836020036101000a031916815260200191505b5094505050505060405180910390f35b61082b611004565b6040518082815260200191505060405180910390f35b610849611011565b6040518082815260200191505060405180910390f35b61088b6004803603602081101561087557600080fd5b810190808035906020019092919050505061101d565b6040518080602001828103825283818151815260200191508051906020019080838360005b838110156108cb5780820151818401526020810190506108b0565b50505050905090810190601f1680156108f85780820380516001836020036101000a031916815260200191505b509250505060405180910390f35b61090e6110d6565b6040518082815260200191505060405180910390f35b61092c6110e3565b60405180604001604052808481526020018381525090506000600180839080600181540180825580915050906001820390600052602060002090600202016000909192909190915060008201518160000190805190602001906109909291906110fd565b5060208201518160010190805190602001906109ad9291906110fd565b5050500390507f05e92da4243056aec80897f377df446555c2ec369a1c4ad2884166908bdb6c4a816040518082815260200191505060405180910390a150505050565b6060806060806109fe61117d565b60008681548110610a0b57fe5b9060005260206000209060040201604051806080016040529081600082018054600181600116156101000203166002900480601f016020809104026020016040519081016040528092919081815260200182805460018160011615610100020316600290048015610abd5780601f10610a9257610100808354040283529160200191610abd565b820191906000526020600020905b815481529060010190602001808311610aa057829003601f168201915b50505050508152602001600182018054600181600116156101000203166002900480601f016020809104026020016040519081016040528092919081815260200182805460018160011615610100020316600290048015610b5f5780601f10610b3457610100808354040283529160200191610b5f565b820191906000526020600020905b815481529060010190602001808311610b4257829003601f168201915b50505050508152602001600282018054600181600116156101000203166002900480601f016020809104026020016040519081016040528092919081815260200182805460018160011615610100020316600290048015610c015780601f10610bd657610100808354040283529160200191610c01565b820191906000526020600020905b815481529060010190602001808311610be457829003601f168201915b50505050508152602001600382018054600181600116156101000203166002900480601f016020809104026020016040519081016040528092919081815260200182805460018160011615610100020316600290048015610ca35780601f10610c7857610100808354040283529160200191610ca3565b820191906000526020600020905b815481529060010190602001808311610c8657829003601f168201915b505050505081525050905080600001518160200151826040015183606001518393508292508191508090509450945094509450509193509193565b600060016002839080600181540180825580915050906001820390600052602060002001600090919290919091509080519060200190610d1f9291906111a5565b500390507f8034f19d2c388a1dfa0030b414c3c6616c42f9e007d2647f077fd12febc77a89816040518082815260200191505060405180910390a15050565b610d6661117d565b604051806080016040528086815260200185815260200184815260200183815250905060006001600083908060018154018082558091505090600182039060005260206000209060040201600090919290919091506000820151816000019080519060200190610dd79291906110fd565b506020820151816001019080519060200190610df49291906110fd565b506040820151816002019080519060200190610e119291906110fd565b506060820151816003019080519060200190610e2e9291906110fd565b5050500390507f8293f4e01368efdeac589d77db9b3e46b56be3d118c53292b595171e8cb7bdde816040518082815260200191505060405180910390a1505050505050565b606080610e7e6110e3565b60018481548110610e8b57fe5b9060005260206000209060020201604051806040016040529081600082018054600181600116156101000203166002900480601f016020809104026020016040519081016040528092919081815260200182805460018160011615610100020316600290048015610f3d5780601f10610f1257610100808354040283529160200191610f3d565b820191906000526020600020905b815481529060010190602001808311610f2057829003601f168201915b50505050508152602001600182018054600181600116156101000203166002900480601f016020809104026020016040519081016040528092919081815260200182805460018160011615610100020316600290048015610fdf5780601f10610fb457610100808354040283529160200191610fdf565b820191906000526020600020905b815481529060010190602001808311610fc257829003601f168201915b5050505050815250509050806000015181602001518191508090509250925050915091565b6000600180549050905090565b60008080549050905090565b60606002828154811061102c57fe5b906000526020600020018054600181600116156101000203166002900480601f0160208091040260200160405190810160405280929190818152602001828054600181600116156101000203166002900480156110ca5780601f1061109f576101008083540402835291602001916110ca565b820191906000526020600020905b8154815290600101906020018083116110ad57829003601f168201915b50505050509050919050565b6000600280549050905090565b604051806040016040528060608152602001606081525090565b828054600181600116156101000203166002900490600052602060002090601f016020900481019282601f1061113e57805160ff191683800117855561116c565b8280016001018555821561116c579182015b8281111561116b578251825591602001919060010190611150565b5b5090506111799190611225565b5090565b6040518060800160405280606081526020016060815260200160608152602001606081525090565b828054600181600116156101000203166002900490600052602060002090601f016020900481019282601f106111e657805160ff1916838001178555611214565b82800160010185558215611214579182015b828111156112135782518255916020019190600101906111f8565b5b5090506112219190611225565b5090565b61124791905b8082111561124357600081600090555060010161122b565b5090565b9056fea265627a7a72315820117d7933713cb2485f7a628b8f35af34305084cc01d26134fae3ee86cbc6d20664736f6c634300050c0032",
  "source": "pragma solidity ^0.5.0;\n\ncontract ForumApp {\n\n    event OnPostAdded(uint postId);\n    event OnCatAdded(uint catId);\n    event OnUserAdded(uint userId);\n\n    struct User {\n        string addr;\n        string name;\n    }\n\n    struct Post {\n        string id;\n        string category;\n        string title;\n        string content;\n    }\n\n    Post[] posts;\n    User[] users;\n    string[] categorys;\n\n    function addPost(string memory id, string memory category,\n                     string memory title, string memory content) public {\n        Post memory post = Post({\n            id: id, \n            category: category, \n            title: title, \n            content: content\n        });\n            \n        uint postId = posts.push(post) - 1;\n        emit OnPostAdded(postId);\n    }\n\n    function getPostLength() public view returns(uint length){\n        return posts.length;\n    }\n    \n    function getPosts(uint idx) public view \n    returns(string memory id, string memory category, string memory title, string memory content){\n        Post memory post = posts[idx];\n        return(post.id, post.category, post.title, post.content);\n    } \n\n    function addCategory(string memory category) public {\n        uint catId = categorys.push(category) - 1;\n        emit OnCatAdded(catId);\n    }\n\n    function getCategoryLength() public view returns(uint length){\n        return categorys.length;\n    }\n    \n    function getCategorys(uint idx) public view returns(string memory category){\n        return categorys[idx];\n    } \n\n    function addUser(string memory addr, string memory name) public {\n        User memory user = User({\n            addr: addr, \n            name: name \n        });\n            \n        uint userId = users.push(user) - 1;\n        emit OnUserAdded(userId);\n    }\n\n    function getUserLength() public view returns(uint length){\n        return users.length;\n    }\n    \n    function getUsers(uint idx) public view \n    returns(string memory addr, string memory name){\n        User memory user = users[idx];\n        return(user.addr, user.name);\n    } \n\n}\n",
  "sourcePath": "/Users/pxpxkao1418/Desktop/網多實驗/Blockchain/NMLabFinalProject/contracts/ForumApp.sol",
  "compiler": {
    "name": "solc",
    "version": "0.5.12+commit.7709ece9.Emscripten.clang"
  },
  "schemaVersion": "3.0.18",
  "updatedAt": "2019-12-13T14:09:32.820Z",
  "networkType": "ethereum",
  "devdoc": {
    "methods": {}
  },
  "userdoc": {
    "methods": {}
  }
}