{
  "contractName": "ForumApp",
  "abi": [
    {
      "anonymous": false,
      "inputs": [
        {
          "indexed": false,
          "name": "postId",
          "type": "uint256"
        }
      ],
      "name": "OnPostAdded",
      "type": "event"
    },
    {
      "anonymous": false,
      "inputs": [
        {
          "indexed": false,
          "name": "post_hashId",
          "type": "uint256"
        }
      ],
      "name": "OnPostHashAdded",
      "type": "event"
    },
    {
      "anonymous": false,
      "inputs": [
        {
          "indexed": false,
          "name": "catId",
          "type": "uint256"
        }
      ],
      "name": "OnCatAdded",
      "type": "event"
    },
    {
      "anonymous": false,
      "inputs": [
        {
          "indexed": false,
          "name": "userId",
          "type": "uint256"
        }
      ],
      "name": "OnUserAdded",
      "type": "event"
    },
    {
      "constant": false,
      "inputs": [
        {
          "name": "id",
          "type": "string"
        },
        {
          "name": "post_hash",
          "type": "string"
        }
      ],
      "name": "addPostHash",
      "outputs": [],
      "payable": false,
      "stateMutability": "nonpayable",
      "type": "function"
    },
    {
      "constant": false,
      "inputs": [
        {
          "name": "id",
          "type": "string"
        },
        {
          "name": "category",
          "type": "string"
        },
        {
          "name": "title",
          "type": "string"
        },
        {
          "name": "content",
          "type": "string"
        },
        {
          "name": "user",
          "type": "string"
        },
        {
          "name": "date",
          "type": "uint256"
        },
        {
          "name": "image_hash",
          "type": "string"
        }
      ],
      "name": "addPost",
      "outputs": [],
      "payable": false,
      "stateMutability": "nonpayable",
      "type": "function"
    },
    {
      "constant": true,
      "inputs": [],
      "name": "getPostHashLength",
      "outputs": [
        {
          "name": "length",
          "type": "uint256"
        }
      ],
      "payable": false,
      "stateMutability": "view",
      "type": "function"
    },
    {
      "constant": true,
      "inputs": [],
      "name": "getPostLength",
      "outputs": [
        {
          "name": "length",
          "type": "uint256"
        }
      ],
      "payable": false,
      "stateMutability": "view",
      "type": "function"
    },
    {
      "constant": true,
      "inputs": [
        {
          "name": "idx",
          "type": "uint256"
        }
      ],
      "name": "getPostHashes",
      "outputs": [
        {
          "name": "id",
          "type": "string"
        },
        {
          "name": "post_hash",
          "type": "string"
        }
      ],
      "payable": false,
      "stateMutability": "view",
      "type": "function"
    },
    {
      "constant": true,
      "inputs": [
        {
          "name": "idx",
          "type": "uint256"
        }
      ],
      "name": "getPosts",
      "outputs": [
        {
          "name": "id",
          "type": "string"
        },
        {
          "name": "category",
          "type": "string"
        },
        {
          "name": "title",
          "type": "string"
        },
        {
          "name": "content",
          "type": "string"
        },
        {
          "name": "user",
          "type": "string"
        },
        {
          "name": "date",
          "type": "uint256"
        },
        {
          "name": "image_hash",
          "type": "string"
        }
      ],
      "payable": false,
      "stateMutability": "view",
      "type": "function"
    },
    {
      "constant": false,
      "inputs": [
        {
          "name": "category",
          "type": "string"
        }
      ],
      "name": "addCategory",
      "outputs": [],
      "payable": false,
      "stateMutability": "nonpayable",
      "type": "function"
    },
    {
      "constant": true,
      "inputs": [],
      "name": "getCategoryLength",
      "outputs": [
        {
          "name": "length",
          "type": "uint256"
        }
      ],
      "payable": false,
      "stateMutability": "view",
      "type": "function"
    },
    {
      "constant": true,
      "inputs": [
        {
          "name": "idx",
          "type": "uint256"
        }
      ],
      "name": "getCategorys",
      "outputs": [
        {
          "name": "category",
          "type": "string"
        }
      ],
      "payable": false,
      "stateMutability": "view",
      "type": "function"
    },
    {
      "constant": false,
      "inputs": [
        {
          "name": "addr",
          "type": "string"
        },
        {
          "name": "name",
          "type": "string"
        }
      ],
      "name": "addUser",
      "outputs": [],
      "payable": false,
      "stateMutability": "nonpayable",
      "type": "function"
    },
    {
      "constant": true,
      "inputs": [],
      "name": "getUserLength",
      "outputs": [
        {
          "name": "length",
          "type": "uint256"
        }
      ],
      "payable": false,
      "stateMutability": "view",
      "type": "function"
    },
    {
      "constant": true,
      "inputs": [
        {
          "name": "idx",
          "type": "uint256"
        }
      ],
      "name": "getUsers",
      "outputs": [
        {
          "name": "addr",
          "type": "string"
        },
        {
          "name": "name",
          "type": "string"
        }
      ],
      "payable": false,
      "stateMutability": "view",
      "type": "function"
    }
  ],
  "bytecode": "0x608060405234801561001057600080fd5b50611b97806100206000396000f3fe608060405234801561001057600080fd5b50600436106100b45760003560e01c80635d73ab9a116100715780635d73ab9a146108135780637456fed614610926578063b5e4afa514610944578063d597ad2914610cfc578063e6d25fbb14610d1a578063f2d6f9f814610dc1576100b4565b8063079eaf34146100b9578063136976761461020b57806318175f5d1461035d5780631d45cddc146104705780632b71dbdf1461073a5780632e0dcbf714610758575b600080fd5b610209600480360360408110156100cf57600080fd5b81019080803590602001906401000000008111156100ec57600080fd5b8201836020820111156100fe57600080fd5b8035906020019184600183028401116401000000008311171561012057600080fd5b91908080601f016020809104026020016040519081016040528093929190818152602001838380828437600081840152601f19601f8201169050808301925050505050505091929192908035906020019064010000000081111561018357600080fd5b82018360208201111561019557600080fd5b803590602001918460018302840111640100000000831117156101b757600080fd5b91908080601f016020809104026020016040519081016040528093929190818152602001838380828437600081840152601f19601f820116905080830192505050505050509192919290505050610ddf565b005b61035b6004803603604081101561022157600080fd5b810190808035906020019064010000000081111561023e57600080fd5b82018360208201111561025057600080fd5b8035906020019184600183028401116401000000008311171561027257600080fd5b91908080601f016020809104026020016040519081016040528093929190818152602001838380828437600081840152601f19601f820116905080830192505050505050509192919290803590602001906401000000008111156102d557600080fd5b8201836020820111156102e757600080fd5b8035906020019184600183028401116401000000008311171561030957600080fd5b91908080601f016020809104026020016040519081016040528093929190818152602001838380828437600081840152601f19601f820116905080830192505050505050509192919290505050610eab565b005b6103896004803603602081101561037357600080fd5b8101908080359060200190929190505050610f78565b604051808060200180602001838103835285818151815260200191508051906020019080838360005b838110156103cd5780820151818401526020810190506103b2565b50505050905090810190601f1680156103fa5780820380516001836020036101000a031916815260200191505b50838103825284818151815260200191508051906020019080838360005b83811015610433578082015181840152602081019050610418565b50505050905090810190601f1680156104605780820380516001836020036101000a031916815260200191505b5094505050505060405180910390f35b61049c6004803603602081101561048657600080fd5b8101908080359060200190929190505050611109565b6040518080602001806020018060200180602001806020018881526020018060200187810387528e818151815260200191508051906020019080838360005b838110156104f65780820151818401526020810190506104db565b50505050905090810190601f1680156105235780820380516001836020036101000a031916815260200191505b5087810386528d818151815260200191508051906020019080838360005b8381101561055c578082015181840152602081019050610541565b50505050905090810190601f1680156105895780820380516001836020036101000a031916815260200191505b5087810385528c818151815260200191508051906020019080838360005b838110156105c25780820151818401526020810190506105a7565b50505050905090810190601f1680156105ef5780820380516001836020036101000a031916815260200191505b5087810384528b818151815260200191508051906020019080838360005b8381101561062857808201518184015260208101905061060d565b50505050905090810190601f1680156106555780820380516001836020036101000a031916815260200191505b5087810383528a818151815260200191508051906020019080838360005b8381101561068e578082015181840152602081019050610673565b50505050905090810190601f1680156106bb5780820380516001836020036101000a031916815260200191505b50878103825288818151815260200191508051906020019080838360005b838110156106f45780820151818401526020810190506106d9565b50505050905090810190601f1680156107215780820380516001836020036101000a031916815260200191505b509d505050505050505050505050505060405180910390f35b61074261156a565b6040518082815260200191505060405180910390f35b6108116004803603602081101561076e57600080fd5b810190808035906020019064010000000081111561078b57600080fd5b82018360208201111561079d57600080fd5b803590602001918460018302840111640100000000831117156107bf57600080fd5b91908080601f016020809104026020016040519081016040528093929190818152602001838380828437600081840152601f19601f820116905080830192505050505050509192919290505050611577565b005b61083f6004803603602081101561082957600080fd5b81019080803590602001909291905050506115f7565b604051808060200180602001838103835285818151815260200191508051906020019080838360005b83811015610883578082015181840152602081019050610868565b50505050905090810190601f1680156108b05780820380516001836020036101000a031916815260200191505b50838103825284818151815260200191508051906020019080838360005b838110156108e95780820151818401526020810190506108ce565b50505050905090810190601f1680156109165780820380516001836020036101000a031916815260200191505b5094505050505060405180910390f35b61092e611788565b6040518082815260200191505060405180910390f35b610cfa600480360360e081101561095a57600080fd5b810190808035906020019064010000000081111561097757600080fd5b82018360208201111561098957600080fd5b803590602001918460018302840111640100000000831117156109ab57600080fd5b91908080601f016020809104026020016040519081016040528093929190818152602001838380828437600081840152601f19601f82011690508083019250505050505050919291929080359060200190640100000000811115610a0e57600080fd5b820183602082011115610a2057600080fd5b80359060200191846001830284011164010000000083111715610a4257600080fd5b91908080601f016020809104026020016040519081016040528093929190818152602001838380828437600081840152601f19601f82011690508083019250505050505050919291929080359060200190640100000000811115610aa557600080fd5b820183602082011115610ab757600080fd5b80359060200191846001830284011164010000000083111715610ad957600080fd5b91908080601f016020809104026020016040519081016040528093929190818152602001838380828437600081840152601f19601f82011690508083019250505050505050919291929080359060200190640100000000811115610b3c57600080fd5b820183602082011115610b4e57600080fd5b80359060200191846001830284011164010000000083111715610b7057600080fd5b91908080601f016020809104026020016040519081016040528093929190818152602001838380828437600081840152601f19601f82011690508083019250505050505050919291929080359060200190640100000000811115610bd357600080fd5b820183602082011115610be557600080fd5b80359060200191846001830284011164010000000083111715610c0757600080fd5b91908080601f016020809104026020016040519081016040528093929190818152602001838380828437600081840152601f19601f8201169050808301925050505050505091929192908035906020019092919080359060200190640100000000811115610c7457600080fd5b820183602082011115610c8657600080fd5b80359060200191846001830284011164010000000083111715610ca857600080fd5b91908080601f016020809104026020016040519081016040528093929190818152602001838380828437600081840152601f19601f820116905080830192505050505050509192919290505050611795565b005b610d04611903565b6040518082815260200191505060405180910390f35b610d4660048036036020811015610d3057600080fd5b810190808035906020019092919050505061190f565b6040518080602001828103825283818151815260200191508051906020019080838360005b83811015610d86578082015181840152602081019050610d6b565b50505050905090810190601f168015610db35780820380516001836020036101000a031916815260200191505b509250505060405180910390f35b610dc96119c8565b6040518082815260200191505060405180910390f35b610de76119d5565b6040518060400160405280848152602001838152509050600060018083908060018154018082558091505090600182039060005260206000209060020201600090919290919091506000820151816000019080519060200190610e4b9291906119ef565b506020820151816001019080519060200190610e689291906119ef565b5050500390507f05e92da4243056aec80897f377df446555c2ec369a1c4ad2884166908bdb6c4a816040518082815260200191505060405180910390a150505050565b610eb3611a6f565b604051806040016040528084815260200183815250905060006001600283908060018154018082558091505090600182039060005260206000209060020201600090919290919091506000820151816000019080519060200190610f189291906119ef565b506020820151816001019080519060200190610f359291906119ef565b5050500390507fe4feeee3640fcd4dcad1cbea05967bb03ff60121f138ccfa82d6f8396b6da917816040518082815260200191505060405180910390a150505050565b606080610f83611a6f565b60028481548110610f9057fe5b9060005260206000209060020201604051806040016040529081600082018054600181600116156101000203166002900480601f0160208091040260200160405190810160405280929190818152602001828054600181600116156101000203166002900480156110425780601f1061101757610100808354040283529160200191611042565b820191906000526020600020905b81548152906001019060200180831161102557829003601f168201915b50505050508152602001600182018054600181600116156101000203166002900480601f0160208091040260200160405190810160405280929190818152602001828054600181600116156101000203166002900480156110e45780601f106110b9576101008083540402835291602001916110e4565b820191906000526020600020905b8154815290600101906020018083116110c757829003601f168201915b5050505050815250509050806000015181602001518191508090509250925050915091565b60608060608060606000606061111d611a89565b6000898154811061112a57fe5b90600052602060002090600702016040518060e0016040529081600082018054600181600116156101000203166002900480601f0160208091040260200160405190810160405280929190818152602001828054600181600116156101000203166002900480156111dc5780601f106111b1576101008083540402835291602001916111dc565b820191906000526020600020905b8154815290600101906020018083116111bf57829003601f168201915b50505050508152602001600182018054600181600116156101000203166002900480601f01602080910402602001604051908101604052809291908181526020018280546001816001161561010002031660029004801561127e5780601f106112535761010080835404028352916020019161127e565b820191906000526020600020905b81548152906001019060200180831161126157829003601f168201915b50505050508152602001600282018054600181600116156101000203166002900480601f0160208091040260200160405190810160405280929190818152602001828054600181600116156101000203166002900480156113205780601f106112f557610100808354040283529160200191611320565b820191906000526020600020905b81548152906001019060200180831161130357829003601f168201915b50505050508152602001600382018054600181600116156101000203166002900480601f0160208091040260200160405190810160405280929190818152602001828054600181600116156101000203166002900480156113c25780601f10611397576101008083540402835291602001916113c2565b820191906000526020600020905b8154815290600101906020018083116113a557829003601f168201915b50505050508152602001600482018054600181600116156101000203166002900480601f0160208091040260200160405190810160405280929190818152602001828054600181600116156101000203166002900480156114645780601f1061143957610100808354040283529160200191611464565b820191906000526020600020905b81548152906001019060200180831161144757829003601f168201915b50505050508152602001600582018054600181600116156101000203166002900480601f0160208091040260200160405190810160405280929190818152602001828054600181600116156101000203166002900480156115065780601f106114db57610100808354040283529160200191611506565b820191906000526020600020905b8154815290600101906020018083116114e957829003601f168201915b505050505081526020016006820154815250509050806000015181602001518260400151836060015184608001518560c001518660a00151869650859550849450839350829250809050975097509750975097509750975050919395979092949650565b6000600280549050905090565b6000600160038390806001815401808255809150509060018203906000526020600020016000909192909190915090805190602001906115b8929190611ac6565b500390507f8034f19d2c388a1dfa0030b414c3c6616c42f9e007d2647f077fd12febc77a89816040518082815260200191505060405180910390a15050565b6060806116026119d5565b6001848154811061160f57fe5b9060005260206000209060020201604051806040016040529081600082018054600181600116156101000203166002900480601f0160208091040260200160405190810160405280929190818152602001828054600181600116156101000203166002900480156116c15780601f10611696576101008083540402835291602001916116c1565b820191906000526020600020905b8154815290600101906020018083116116a457829003601f168201915b50505050508152602001600182018054600181600116156101000203166002900480601f0160208091040260200160405190810160405280929190818152602001828054600181600116156101000203166002900480156117635780601f1061173857610100808354040283529160200191611763565b820191906000526020600020905b81548152906001019060200180831161174657829003601f168201915b5050505050815250509050806000015181602001518191508090509250925050915091565b6000600180549050905090565b61179d611a89565b6040518060e00160405280898152602001888152602001878152602001868152602001858152602001838152602001848152509050600060016000839080600181540180825580915050906001820390600052602060002090600702016000909192909190915060008201518160000190805190602001906118209291906119ef565b50602082015181600101908051906020019061183d9291906119ef565b50604082015181600201908051906020019061185a9291906119ef565b5060608201518160030190805190602001906118779291906119ef565b5060808201518160040190805190602001906118949291906119ef565b5060a08201518160050190805190602001906118b19291906119ef565b5060c0820151816006015550500390507f8293f4e01368efdeac589d77db9b3e46b56be3d118c53292b595171e8cb7bdde816040518082815260200191505060405180910390a1505050505050505050565b60008080549050905090565b60606003828154811061191e57fe5b906000526020600020018054600181600116156101000203166002900480601f0160208091040260200160405190810160405280929190818152602001828054600181600116156101000203166002900480156119bc5780601f10611991576101008083540402835291602001916119bc565b820191906000526020600020905b81548152906001019060200180831161199f57829003601f168201915b50505050509050919050565b6000600380549050905090565b604051806040016040528060608152602001606081525090565b828054600181600116156101000203166002900490600052602060002090601f016020900481019282601f10611a3057805160ff1916838001178555611a5e565b82800160010185558215611a5e579182015b82811115611a5d578251825591602001919060010190611a42565b5b509050611a6b9190611b46565b5090565b604051806040016040528060608152602001606081525090565b6040518060e00160405280606081526020016060815260200160608152602001606081526020016060815260200160608152602001600081525090565b828054600181600116156101000203166002900490600052602060002090601f016020900481019282601f10611b0757805160ff1916838001178555611b35565b82800160010185558215611b35579182015b82811115611b34578251825591602001919060010190611b19565b5b509050611b429190611b46565b5090565b611b6891905b80821115611b64576000816000905550600101611b4c565b5090565b9056fea165627a7a72305820087deb4419cac50c3c93d936c2b3e90735b9b66cde526d298419661f036fe0080029",
  "source": "pragma solidity ^0.5.0;\n\ncontract ForumApp {\n\n    event OnPostAdded(uint postId);\n    event OnPostHashAdded(uint post_hashId);\n    event OnCatAdded(uint catId);\n    event OnUserAdded(uint userId);\n\n    struct User {\n        string addr;\n        string name;\n    }\n\n    struct Post {\n        string id;\n        string category;\n        string title;\n        string content;\n        string user;\n        string image_hash;\n        uint   date;\n    }\n\n    struct PostHash {\n        string post_id;\n        string post_hash;\n    }\n\n    Post[] posts;\n    User[] users;\n    PostHash[] postHashs;\n    string[] categorys;\n\n    function addPostHash(string memory id, string memory post_hash) public {\n        PostHash memory postHash = PostHash({\n            post_id: id,\n            post_hash: post_hash\n        });\n\n        uint post_hashId = postHashs.push(postHash) - 1;\n        emit OnPostHashAdded(post_hashId);\n\n    }\n\n    function addPost(string memory id,    string memory category,\n                     string memory title, string memory content,\n                     string memory user,  uint   date,\n                     string memory image_hash) public {\n        Post memory post = Post({\n            id: id, \n            category: category, \n            title:    title, \n            content:  content,\n            user:     user, \n            date:     date,\n            image_hash: image_hash\n        });\n            \n        uint postId = posts.push(post) - 1;\n        emit OnPostAdded(postId);\n    }\n    function getPostHashLength() public view returns(uint length){\n        return postHashs.length;\n    }\n    function getPostLength() public view returns(uint length){\n        return posts.length;\n    }\n    \n    function getPostHashes(uint idx) public view \n    returns(string memory id, string memory post_hash){\n        PostHash memory postHash = postHashs[idx];\n        return (postHash.post_id, postHash.post_hash);\n    }\n    function getPosts(uint idx) public view \n    returns(string memory id,    string memory category, \n            string memory title, string memory content,\n            string memory user,  uint   date, \n            string memory image_hash){\n\n        Post memory post = posts[idx];\n        return(post.id,    post.category, \n               post.title, post.content,\n               post.user,  post.date,\n               post.image_hash);\n    } \n\n    function addCategory(string memory category) public {\n        uint catId = categorys.push(category) - 1;\n        emit OnCatAdded(catId);\n    }\n\n    function getCategoryLength() public view returns(uint length){\n        return categorys.length;\n    }\n    \n    function getCategorys(uint idx) public view returns(string memory category){\n        return categorys[idx];\n    } \n\n    function addUser(string memory addr, string memory name) public {\n        User memory user = User({\n            addr: addr, \n            name: name \n        });\n            \n        uint userId = users.push(user) - 1;\n        emit OnUserAdded(userId);\n    }\n\n    function getUserLength() public view returns(uint length){\n        return users.length;\n    }\n    \n    function getUsers(uint idx) public view \n    returns(string memory addr, string memory name){\n        User memory user = users[idx];\n        return(user.addr, user.name);\n    } \n\n}\n",
  "sourcePath": "/Users/isabel/Desktop/NMLabFinalProject/contracts/ForumApp.sol",
  "compiler": {
    "name": "solc",
    "version": "0.5.8+commit.23d335f2.Emscripten.clang"
  },
  "schemaVersion": "3.0.16",
  "updatedAt": "2020-01-09T09:39:14.684Z",
  "devdoc": {
    "methods": {}
  },
  "userdoc": {
    "methods": {}
  }
}