{
  "contractName": "ForumApp",
  "abi": [
    {
      "anonymous": false,
      "inputs": [
        {
          "indexed": false,
          "internalType": "uint256",
          "name": "catId",
          "type": "uint256"
        }
      ],
      "name": "OnCatAdded",
      "type": "event"
    },
    {
      "anonymous": false,
      "inputs": [
        {
          "indexed": false,
          "internalType": "uint256",
          "name": "postId",
          "type": "uint256"
        }
      ],
      "name": "OnPostAdded",
      "type": "event"
    },
    {
      "anonymous": false,
      "inputs": [
        {
          "indexed": false,
          "internalType": "uint256",
          "name": "userId",
          "type": "uint256"
        }
      ],
      "name": "OnUserAdded",
      "type": "event"
    },
    {
      "constant": false,
      "inputs": [
        {
          "internalType": "string",
          "name": "id",
          "type": "string"
        },
        {
          "internalType": "string",
          "name": "category",
          "type": "string"
        },
        {
          "internalType": "string",
          "name": "title",
          "type": "string"
        },
        {
          "internalType": "string",
          "name": "content",
          "type": "string"
        },
        {
          "internalType": "string",
          "name": "user",
          "type": "string"
        },
        {
          "internalType": "uint256",
          "name": "date",
          "type": "uint256"
        }
      ],
      "name": "addPost",
      "outputs": [],
      "payable": false,
      "stateMutability": "nonpayable",
      "type": "function"
    },
    {
      "constant": true,
      "inputs": [],
      "name": "getPostLength",
      "outputs": [
        {
          "internalType": "uint256",
          "name": "length",
          "type": "uint256"
        }
      ],
      "payable": false,
      "stateMutability": "view",
      "type": "function"
    },
    {
      "constant": true,
      "inputs": [
        {
          "internalType": "uint256",
          "name": "idx",
          "type": "uint256"
        }
      ],
      "name": "getPosts",
      "outputs": [
        {
          "internalType": "string",
          "name": "id",
          "type": "string"
        },
        {
          "internalType": "string",
          "name": "category",
          "type": "string"
        },
        {
          "internalType": "string",
          "name": "title",
          "type": "string"
        },
        {
          "internalType": "string",
          "name": "content",
          "type": "string"
        },
        {
          "internalType": "string",
          "name": "user",
          "type": "string"
        },
        {
          "internalType": "uint256",
          "name": "date",
          "type": "uint256"
        }
      ],
      "payable": false,
      "stateMutability": "view",
      "type": "function"
    },
    {
      "constant": false,
      "inputs": [
        {
          "internalType": "string",
          "name": "category",
          "type": "string"
        }
      ],
      "name": "addCategory",
      "outputs": [],
      "payable": false,
      "stateMutability": "nonpayable",
      "type": "function"
    },
    {
      "constant": true,
      "inputs": [],
      "name": "getCategoryLength",
      "outputs": [
        {
          "internalType": "uint256",
          "name": "length",
          "type": "uint256"
        }
      ],
      "payable": false,
      "stateMutability": "view",
      "type": "function"
    },
    {
      "constant": true,
      "inputs": [
        {
          "internalType": "uint256",
          "name": "idx",
          "type": "uint256"
        }
      ],
      "name": "getCategorys",
      "outputs": [
        {
          "internalType": "string",
          "name": "category",
          "type": "string"
        }
      ],
      "payable": false,
      "stateMutability": "view",
      "type": "function"
    },
    {
      "constant": false,
      "inputs": [
        {
          "internalType": "string",
          "name": "addr",
          "type": "string"
        },
        {
          "internalType": "string",
          "name": "name",
          "type": "string"
        }
      ],
      "name": "addUser",
      "outputs": [],
      "payable": false,
      "stateMutability": "nonpayable",
      "type": "function"
    },
    {
      "constant": true,
      "inputs": [],
      "name": "getUserLength",
      "outputs": [
        {
          "internalType": "uint256",
          "name": "length",
          "type": "uint256"
        }
      ],
      "payable": false,
      "stateMutability": "view",
      "type": "function"
    },
    {
      "constant": true,
      "inputs": [
        {
          "internalType": "uint256",
          "name": "idx",
          "type": "uint256"
        }
      ],
      "name": "getUsers",
      "outputs": [
        {
          "internalType": "string",
          "name": "addr",
          "type": "string"
        },
        {
          "internalType": "string",
          "name": "name",
          "type": "string"
        }
      ],
      "payable": false,
      "stateMutability": "view",
      "type": "function"
    }
  ],
  "bytecode": "0x608060405234801561001057600080fd5b50611499806100206000396000f3fe608060405234801561001057600080fd5b50600436106100935760003560e01c80637456fed6116100665780637456fed614610616578063caf3662914610634578063d597ad2914610955578063e6d25fbb14610973578063f2d6f9f814610a1a57610093565b8063079eaf34146100985780631d45cddc146101ea5780632e0dcbf7146104485780635d73ab9a14610503575b600080fd5b6101e8600480360360408110156100ae57600080fd5b81019080803590602001906401000000008111156100cb57600080fd5b8201836020820111156100dd57600080fd5b803590602001918460018302840111640100000000831117156100ff57600080fd5b91908080601f016020809104026020016040519081016040528093929190818152602001838380828437600081840152601f19601f8201169050808301925050505050505091929192908035906020019064010000000081111561016257600080fd5b82018360208201111561017457600080fd5b8035906020019184600183028401116401000000008311171561019657600080fd5b91908080601f016020809104026020016040519081016040528093929190818152602001838380828437600081840152601f19601f820116905080830192505050505050509192919290505050610a38565b005b6102166004803603602081101561020057600080fd5b8101908080359060200190929190505050610b04565b60405180806020018060200180602001806020018060200187815260200186810386528c818151815260200191508051906020019080838360005b8381101561026c578082015181840152602081019050610251565b50505050905090810190601f1680156102995780820380516001836020036101000a031916815260200191505b5086810385528b818151815260200191508051906020019080838360005b838110156102d25780820151818401526020810190506102b7565b50505050905090810190601f1680156102ff5780820380516001836020036101000a031916815260200191505b5086810384528a818151815260200191508051906020019080838360005b8381101561033857808201518184015260208101905061031d565b50505050905090810190601f1680156103655780820380516001836020036101000a031916815260200191505b50868103835289818151815260200191508051906020019080838360005b8381101561039e578082015181840152602081019050610383565b50505050905090810190601f1680156103cb5780820380516001836020036101000a031916815260200191505b50868103825288818151815260200191508051906020019080838360005b838110156104045780820151818401526020810190506103e9565b50505050905090810190601f1680156104315780820380516001836020036101000a031916815260200191505b509b50505050505050505050505060405180910390f35b6105016004803603602081101561045e57600080fd5b810190808035906020019064010000000081111561047b57600080fd5b82018360208201111561048d57600080fd5b803590602001918460018302840111640100000000831117156104af57600080fd5b91908080601f016020809104026020016040519081016040528093929190818152602001838380828437600081840152601f19601f820116905080830192505050505050509192919290505050610eb5565b005b61052f6004803603602081101561051957600080fd5b8101908080359060200190929190505050610f35565b604051808060200180602001838103835285818151815260200191508051906020019080838360005b83811015610573578082015181840152602081019050610558565b50505050905090810190601f1680156105a05780820380516001836020036101000a031916815260200191505b50838103825284818151815260200191508051906020019080838360005b838110156105d95780820151818401526020810190506105be565b50505050905090810190601f1680156106065780820380516001836020036101000a031916815260200191505b5094505050505060405180910390f35b61061e6110c6565b6040518082815260200191505060405180910390f35b610953600480360360c081101561064a57600080fd5b810190808035906020019064010000000081111561066757600080fd5b82018360208201111561067957600080fd5b8035906020019184600183028401116401000000008311171561069b57600080fd5b91908080601f016020809104026020016040519081016040528093929190818152602001838380828437600081840152601f19601f820116905080830192505050505050509192919290803590602001906401000000008111156106fe57600080fd5b82018360208201111561071057600080fd5b8035906020019184600183028401116401000000008311171561073257600080fd5b91908080601f016020809104026020016040519081016040528093929190818152602001838380828437600081840152601f19601f8201169050808301925050505050505091929192908035906020019064010000000081111561079557600080fd5b8201836020820111156107a757600080fd5b803590602001918460018302840111640100000000831117156107c957600080fd5b91908080601f016020809104026020016040519081016040528093929190818152602001838380828437600081840152601f19601f8201169050808301925050505050505091929192908035906020019064010000000081111561082c57600080fd5b82018360208201111561083e57600080fd5b8035906020019184600183028401116401000000008311171561086057600080fd5b91908080601f016020809104026020016040519081016040528093929190818152602001838380828437600081840152601f19601f820116905080830192505050505050509192919290803590602001906401000000008111156108c357600080fd5b8201836020820111156108d557600080fd5b803590602001918460018302840111640100000000831117156108f757600080fd5b91908080601f016020809104026020016040519081016040528093929190818152602001838380828437600081840152601f19601f820116905080830192505050505050509192919290803590602001909291905050506110d3565b005b61095d61121d565b6040518082815260200191505060405180910390f35b61099f6004803603602081101561098957600080fd5b8101908080359060200190929190505050611229565b6040518080602001828103825283818151815260200191508051906020019080838360005b838110156109df5780820151818401526020810190506109c4565b50505050905090810190601f168015610a0c5780820380516001836020036101000a031916815260200191505b509250505060405180910390f35b610a226112e2565b6040518082815260200191505060405180910390f35b610a406112ef565b6040518060400160405280848152602001838152509050600060018083908060018154018082558091505090600182039060005260206000209060020201600090919290919091506000820151816000019080519060200190610aa4929190611309565b506020820151816001019080519060200190610ac1929190611309565b5050500390507f05e92da4243056aec80897f377df446555c2ec369a1c4ad2884166908bdb6c4a816040518082815260200191505060405180910390a150505050565b60608060608060606000610b16611389565b60008881548110610b2357fe5b90600052602060002090600602016040518060c0016040529081600082018054600181600116156101000203166002900480601f016020809104026020016040519081016040528092919081815260200182805460018160011615610100020316600290048015610bd55780601f10610baa57610100808354040283529160200191610bd5565b820191906000526020600020905b815481529060010190602001808311610bb857829003601f168201915b50505050508152602001600182018054600181600116156101000203166002900480601f016020809104026020016040519081016040528092919081815260200182805460018160011615610100020316600290048015610c775780601f10610c4c57610100808354040283529160200191610c77565b820191906000526020600020905b815481529060010190602001808311610c5a57829003601f168201915b50505050508152602001600282018054600181600116156101000203166002900480601f016020809104026020016040519081016040528092919081815260200182805460018160011615610100020316600290048015610d195780601f10610cee57610100808354040283529160200191610d19565b820191906000526020600020905b815481529060010190602001808311610cfc57829003601f168201915b50505050508152602001600382018054600181600116156101000203166002900480601f016020809104026020016040519081016040528092919081815260200182805460018160011615610100020316600290048015610dbb5780601f10610d9057610100808354040283529160200191610dbb565b820191906000526020600020905b815481529060010190602001808311610d9e57829003601f168201915b50505050508152602001600482018054600181600116156101000203166002900480601f016020809104026020016040519081016040528092919081815260200182805460018160011615610100020316600290048015610e5d5780601f10610e3257610100808354040283529160200191610e5d565b820191906000526020600020905b815481529060010190602001808311610e4057829003601f168201915b505050505081526020016005820154815250509050806000015181602001518260400151836060015184608001518560a001518595508494508393508292508191509650965096509650965096505091939550919395565b600060016002839080600181540180825580915050906001820390600052602060002001600090919290919091509080519060200190610ef69291906113bf565b500390507f8034f19d2c388a1dfa0030b414c3c6616c42f9e007d2647f077fd12febc77a89816040518082815260200191505060405180910390a15050565b606080610f406112ef565b60018481548110610f4d57fe5b9060005260206000209060020201604051806040016040529081600082018054600181600116156101000203166002900480601f016020809104026020016040519081016040528092919081815260200182805460018160011615610100020316600290048015610fff5780601f10610fd457610100808354040283529160200191610fff565b820191906000526020600020905b815481529060010190602001808311610fe257829003601f168201915b50505050508152602001600182018054600181600116156101000203166002900480601f0160208091040260200160405190810160405280929190818152602001828054600181600116156101000203166002900480156110a15780601f10611076576101008083540402835291602001916110a1565b820191906000526020600020905b81548152906001019060200180831161108457829003601f168201915b5050505050815250509050806000015181602001518191508090509250925050915091565b6000600180549050905090565b6110db611389565b6040518060c0016040528088815260200187815260200186815260200185815260200184815260200183815250905060006001600083908060018154018082558091505090600182039060005260206000209060060201600090919290919091506000820151816000019080519060200190611158929190611309565b506020820151816001019080519060200190611175929190611309565b506040820151816002019080519060200190611192929190611309565b5060608201518160030190805190602001906111af929190611309565b5060808201518160040190805190602001906111cc929190611309565b5060a0820151816005015550500390507f8293f4e01368efdeac589d77db9b3e46b56be3d118c53292b595171e8cb7bdde816040518082815260200191505060405180910390a15050505050505050565b60008080549050905090565b60606002828154811061123857fe5b906000526020600020018054600181600116156101000203166002900480601f0160208091040260200160405190810160405280929190818152602001828054600181600116156101000203166002900480156112d65780601f106112ab576101008083540402835291602001916112d6565b820191906000526020600020905b8154815290600101906020018083116112b957829003601f168201915b50505050509050919050565b6000600280549050905090565b604051806040016040528060608152602001606081525090565b828054600181600116156101000203166002900490600052602060002090601f016020900481019282601f1061134a57805160ff1916838001178555611378565b82800160010185558215611378579182015b8281111561137757825182559160200191906001019061135c565b5b509050611385919061143f565b5090565b6040518060c001604052806060815260200160608152602001606081526020016060815260200160608152602001600081525090565b828054600181600116156101000203166002900490600052602060002090601f016020900481019282601f1061140057805160ff191683800117855561142e565b8280016001018555821561142e579182015b8281111561142d578251825591602001919060010190611412565b5b50905061143b919061143f565b5090565b61146191905b8082111561145d576000816000905550600101611445565b5090565b9056fea265627a7a7231582042f13532b74c06164049ba62b065efe4ae2217335fc17ab65b0ceaf33ce3335364736f6c634300050c0032",
  "source": "pragma solidity ^0.5.0;\n\ncontract ForumApp {\n\n    event OnPostAdded(uint postId);\n    event OnCatAdded(uint catId);\n    event OnUserAdded(uint userId);\n\n    struct User {\n        string addr;\n        string name;\n    }\n\n    struct Post {\n        string id;\n        string category;\n        string title;\n        string content;\n        string user;\n        uint   date;\n        //uint[] image_hash;\n    }\n\n    Post[] posts;\n    User[] users;\n    string[] categorys;\n\n    function addPost(string memory id,    string memory category,\n                     string memory title, string memory content,\n                     string memory user,  uint   date) public {\n        Post memory post = Post({\n            id: id, \n            category: category, \n            title:    title, \n            content:  content,\n            user:     user, \n            date:     date\n        });\n            \n        uint postId = posts.push(post) - 1;\n        emit OnPostAdded(postId);\n    }\n\n    function getPostLength() public view returns(uint length){\n        return posts.length;\n    }\n    \n    function getPosts(uint idx) public view \n    returns(string memory id,    string memory category, \n            string memory title, string memory content,\n            string memory user,  uint   date){\n\n        Post memory post = posts[idx];\n        return(post.id,    post.category, \n               post.title, post.content,\n               post.user,  post.date);\n    } \n\n    function addCategory(string memory category) public {\n        uint catId = categorys.push(category) - 1;\n        emit OnCatAdded(catId);\n    }\n\n    function getCategoryLength() public view returns(uint length){\n        return categorys.length;\n    }\n    \n    function getCategorys(uint idx) public view returns(string memory category){\n        return categorys[idx];\n    } \n\n    function addUser(string memory addr, string memory name) public {\n        User memory user = User({\n            addr: addr, \n            name: name \n        });\n            \n        uint userId = users.push(user) - 1;\n        emit OnUserAdded(userId);\n    }\n\n    function getUserLength() public view returns(uint length){\n        return users.length;\n    }\n    \n    function getUsers(uint idx) public view \n    returns(string memory addr, string memory name){\n        User memory user = users[idx];\n        return(user.addr, user.name);\n    } \n\n}\n",
  "sourcePath": "/Users/pxpxkao1418/Desktop/網多實驗/Blockchain/NMLabFinalProject/contracts/ForumApp.sol",
  "compiler": {
    "name": "solc",
    "version": "0.5.12+commit.7709ece9.Emscripten.clang"
  },
  "schemaVersion": "3.0.18",
  "updatedAt": "2019-12-14T07:45:58.655Z",
  "networkType": "ethereum",
  "devdoc": {
    "methods": {}
  },
  "userdoc": {
    "methods": {}
  }
}