{
  "contractName": "ForumApp",
  "abi": [
    {
      "anonymous": false,
      "inputs": [
        {
          "indexed": false,
          "internalType": "uint256",
          "name": "catId",
          "type": "uint256"
        }
      ],
      "name": "OnCatAdded",
      "type": "event"
    },
    {
      "anonymous": false,
      "inputs": [
        {
          "indexed": false,
          "internalType": "uint256",
          "name": "postId",
          "type": "uint256"
        }
      ],
      "name": "OnPostAdded",
      "type": "event"
    },
    {
      "anonymous": false,
      "inputs": [
        {
          "indexed": false,
          "internalType": "uint256",
          "name": "userId",
          "type": "uint256"
        }
      ],
      "name": "OnUserAdded",
      "type": "event"
    },
    {
      "constant": false,
      "inputs": [
        {
          "internalType": "string",
          "name": "id",
          "type": "string"
        },
        {
          "internalType": "string",
          "name": "category",
          "type": "string"
        },
        {
          "internalType": "string",
          "name": "title",
          "type": "string"
        },
        {
          "internalType": "string",
          "name": "content",
          "type": "string"
        },
        {
          "internalType": "string",
          "name": "user",
          "type": "string"
        },
        {
          "internalType": "uint256",
          "name": "date",
          "type": "uint256"
        },
        {
          "internalType": "string",
          "name": "image_hash",
          "type": "string"
        }
      ],
      "name": "addPost",
      "outputs": [],
      "payable": false,
      "stateMutability": "nonpayable",
      "type": "function"
    },
    {
      "constant": true,
      "inputs": [],
      "name": "getPostLength",
      "outputs": [
        {
          "internalType": "uint256",
          "name": "length",
          "type": "uint256"
        }
      ],
      "payable": false,
      "stateMutability": "view",
      "type": "function"
    },
    {
      "constant": true,
      "inputs": [
        {
          "internalType": "uint256",
          "name": "idx",
          "type": "uint256"
        }
      ],
      "name": "getPosts",
      "outputs": [
        {
          "internalType": "string",
          "name": "id",
          "type": "string"
        },
        {
          "internalType": "string",
          "name": "category",
          "type": "string"
        },
        {
          "internalType": "string",
          "name": "title",
          "type": "string"
        },
        {
          "internalType": "string",
          "name": "content",
          "type": "string"
        },
        {
          "internalType": "string",
          "name": "user",
          "type": "string"
        },
        {
          "internalType": "uint256",
          "name": "date",
          "type": "uint256"
        },
        {
          "internalType": "string",
          "name": "image_hash",
          "type": "string"
        }
      ],
      "payable": false,
      "stateMutability": "view",
      "type": "function"
    },
    {
      "constant": false,
      "inputs": [
        {
          "internalType": "string",
          "name": "category",
          "type": "string"
        }
      ],
      "name": "addCategory",
      "outputs": [],
      "payable": false,
      "stateMutability": "nonpayable",
      "type": "function"
    },
    {
      "constant": true,
      "inputs": [],
      "name": "getCategoryLength",
      "outputs": [
        {
          "internalType": "uint256",
          "name": "length",
          "type": "uint256"
        }
      ],
      "payable": false,
      "stateMutability": "view",
      "type": "function"
    },
    {
      "constant": true,
      "inputs": [
        {
          "internalType": "uint256",
          "name": "idx",
          "type": "uint256"
        }
      ],
      "name": "getCategorys",
      "outputs": [
        {
          "internalType": "string",
          "name": "category",
          "type": "string"
        }
      ],
      "payable": false,
      "stateMutability": "view",
      "type": "function"
    },
    {
      "constant": false,
      "inputs": [
        {
          "internalType": "string",
          "name": "addr",
          "type": "string"
        },
        {
          "internalType": "string",
          "name": "name",
          "type": "string"
        }
      ],
      "name": "addUser",
      "outputs": [],
      "payable": false,
      "stateMutability": "nonpayable",
      "type": "function"
    },
    {
      "constant": true,
      "inputs": [],
      "name": "getUserLength",
      "outputs": [
        {
          "internalType": "uint256",
          "name": "length",
          "type": "uint256"
        }
      ],
      "payable": false,
      "stateMutability": "view",
      "type": "function"
    },
    {
      "constant": true,
      "inputs": [
        {
          "internalType": "uint256",
          "name": "idx",
          "type": "uint256"
        }
      ],
      "name": "getUsers",
      "outputs": [
        {
          "internalType": "string",
          "name": "addr",
          "type": "string"
        },
        {
          "internalType": "string",
          "name": "name",
          "type": "string"
        }
      ],
      "payable": false,
      "stateMutability": "view",
      "type": "function"
    }
  ],
  "bytecode": "0x608060405234801561001057600080fd5b50611677806100206000396000f3fe608060405234801561001057600080fd5b50600436106100935760003560e01c80637456fed6116100665780637456fed614610682578063b5e4afa5146106a0578063d597ad2914610a58578063e6d25fbb14610a76578063f2d6f9f814610b1d57610093565b8063079eaf34146100985780631d45cddc146101ea5780632e0dcbf7146104b45780635d73ab9a1461056f575b600080fd5b6101e8600480360360408110156100ae57600080fd5b81019080803590602001906401000000008111156100cb57600080fd5b8201836020820111156100dd57600080fd5b803590602001918460018302840111640100000000831117156100ff57600080fd5b91908080601f016020809104026020016040519081016040528093929190818152602001838380828437600081840152601f19601f8201169050808301925050505050505091929192908035906020019064010000000081111561016257600080fd5b82018360208201111561017457600080fd5b8035906020019184600183028401116401000000008311171561019657600080fd5b91908080601f016020809104026020016040519081016040528093929190818152602001838380828437600081840152601f19601f820116905080830192505050505050509192919290505050610b3b565b005b6102166004803603602081101561020057600080fd5b8101908080359060200190929190505050610c07565b6040518080602001806020018060200180602001806020018881526020018060200187810387528e818151815260200191508051906020019080838360005b83811015610270578082015181840152602081019050610255565b50505050905090810190601f16801561029d5780820380516001836020036101000a031916815260200191505b5087810386528d818151815260200191508051906020019080838360005b838110156102d65780820151818401526020810190506102bb565b50505050905090810190601f1680156103035780820380516001836020036101000a031916815260200191505b5087810385528c818151815260200191508051906020019080838360005b8381101561033c578082015181840152602081019050610321565b50505050905090810190601f1680156103695780820380516001836020036101000a031916815260200191505b5087810384528b818151815260200191508051906020019080838360005b838110156103a2578082015181840152602081019050610387565b50505050905090810190601f1680156103cf5780820380516001836020036101000a031916815260200191505b5087810383528a818151815260200191508051906020019080838360005b838110156104085780820151818401526020810190506103ed565b50505050905090810190601f1680156104355780820380516001836020036101000a031916815260200191505b50878103825288818151815260200191508051906020019080838360005b8381101561046e578082015181840152602081019050610453565b50505050905090810190601f16801561049b5780820380516001836020036101000a031916815260200191505b509d505050505050505050505050505060405180910390f35b61056d600480360360208110156104ca57600080fd5b81019080803590602001906401000000008111156104e757600080fd5b8201836020820111156104f957600080fd5b8035906020019184600183028401116401000000008311171561051b57600080fd5b91908080601f016020809104026020016040519081016040528093929190818152602001838380828437600081840152601f19601f820116905080830192505050505050509192919290505050611068565b005b61059b6004803603602081101561058557600080fd5b81019080803590602001909291905050506110e8565b604051808060200180602001838103835285818151815260200191508051906020019080838360005b838110156105df5780820151818401526020810190506105c4565b50505050905090810190601f16801561060c5780820380516001836020036101000a031916815260200191505b50838103825284818151815260200191508051906020019080838360005b8381101561064557808201518184015260208101905061062a565b50505050905090810190601f1680156106725780820380516001836020036101000a031916815260200191505b5094505050505060405180910390f35b61068a611279565b6040518082815260200191505060405180910390f35b610a56600480360360e08110156106b657600080fd5b81019080803590602001906401000000008111156106d357600080fd5b8201836020820111156106e557600080fd5b8035906020019184600183028401116401000000008311171561070757600080fd5b91908080601f016020809104026020016040519081016040528093929190818152602001838380828437600081840152601f19601f8201169050808301925050505050505091929192908035906020019064010000000081111561076a57600080fd5b82018360208201111561077c57600080fd5b8035906020019184600183028401116401000000008311171561079e57600080fd5b91908080601f016020809104026020016040519081016040528093929190818152602001838380828437600081840152601f19601f8201169050808301925050505050505091929192908035906020019064010000000081111561080157600080fd5b82018360208201111561081357600080fd5b8035906020019184600183028401116401000000008311171561083557600080fd5b91908080601f016020809104026020016040519081016040528093929190818152602001838380828437600081840152601f19601f8201169050808301925050505050505091929192908035906020019064010000000081111561089857600080fd5b8201836020820111156108aa57600080fd5b803590602001918460018302840111640100000000831117156108cc57600080fd5b91908080601f016020809104026020016040519081016040528093929190818152602001838380828437600081840152601f19601f8201169050808301925050505050505091929192908035906020019064010000000081111561092f57600080fd5b82018360208201111561094157600080fd5b8035906020019184600183028401116401000000008311171561096357600080fd5b91908080601f016020809104026020016040519081016040528093929190818152602001838380828437600081840152601f19601f82011690508083019250505050505050919291929080359060200190929190803590602001906401000000008111156109d057600080fd5b8201836020820111156109e257600080fd5b80359060200191846001830284011164010000000083111715610a0457600080fd5b91908080601f016020809104026020016040519081016040528093929190818152602001838380828437600081840152601f19601f820116905080830192505050505050509192919290505050611286565b005b610a606113f4565b6040518082815260200191505060405180910390f35b610aa260048036036020811015610a8c57600080fd5b8101908080359060200190929190505050611400565b6040518080602001828103825283818151815260200191508051906020019080838360005b83811015610ae2578082015181840152602081019050610ac7565b50505050905090810190601f168015610b0f5780820380516001836020036101000a031916815260200191505b509250505060405180910390f35b610b256114b9565b6040518082815260200191505060405180910390f35b610b436114c6565b6040518060400160405280848152602001838152509050600060018083908060018154018082558091505090600182039060005260206000209060020201600090919290919091506000820151816000019080519060200190610ba79291906114e0565b506020820151816001019080519060200190610bc49291906114e0565b5050500390507f05e92da4243056aec80897f377df446555c2ec369a1c4ad2884166908bdb6c4a816040518082815260200191505060405180910390a150505050565b606080606080606060006060610c1b611560565b60008981548110610c2857fe5b90600052602060002090600702016040518060e0016040529081600082018054600181600116156101000203166002900480601f016020809104026020016040519081016040528092919081815260200182805460018160011615610100020316600290048015610cda5780601f10610caf57610100808354040283529160200191610cda565b820191906000526020600020905b815481529060010190602001808311610cbd57829003601f168201915b50505050508152602001600182018054600181600116156101000203166002900480601f016020809104026020016040519081016040528092919081815260200182805460018160011615610100020316600290048015610d7c5780601f10610d5157610100808354040283529160200191610d7c565b820191906000526020600020905b815481529060010190602001808311610d5f57829003601f168201915b50505050508152602001600282018054600181600116156101000203166002900480601f016020809104026020016040519081016040528092919081815260200182805460018160011615610100020316600290048015610e1e5780601f10610df357610100808354040283529160200191610e1e565b820191906000526020600020905b815481529060010190602001808311610e0157829003601f168201915b50505050508152602001600382018054600181600116156101000203166002900480601f016020809104026020016040519081016040528092919081815260200182805460018160011615610100020316600290048015610ec05780601f10610e9557610100808354040283529160200191610ec0565b820191906000526020600020905b815481529060010190602001808311610ea357829003601f168201915b50505050508152602001600482018054600181600116156101000203166002900480601f016020809104026020016040519081016040528092919081815260200182805460018160011615610100020316600290048015610f625780601f10610f3757610100808354040283529160200191610f62565b820191906000526020600020905b815481529060010190602001808311610f4557829003601f168201915b50505050508152602001600582018054600181600116156101000203166002900480601f0160208091040260200160405190810160405280929190818152602001828054600181600116156101000203166002900480156110045780601f10610fd957610100808354040283529160200191611004565b820191906000526020600020905b815481529060010190602001808311610fe757829003601f168201915b505050505081526020016006820154815250509050806000015181602001518260400151836060015184608001518560c001518660a00151869650859550849450839350829250809050975097509750975097509750975050919395979092949650565b6000600160028390806001815401808255809150509060018203906000526020600020016000909192909190915090805190602001906110a992919061159d565b500390507f8034f19d2c388a1dfa0030b414c3c6616c42f9e007d2647f077fd12febc77a89816040518082815260200191505060405180910390a15050565b6060806110f36114c6565b6001848154811061110057fe5b9060005260206000209060020201604051806040016040529081600082018054600181600116156101000203166002900480601f0160208091040260200160405190810160405280929190818152602001828054600181600116156101000203166002900480156111b25780601f10611187576101008083540402835291602001916111b2565b820191906000526020600020905b81548152906001019060200180831161119557829003601f168201915b50505050508152602001600182018054600181600116156101000203166002900480601f0160208091040260200160405190810160405280929190818152602001828054600181600116156101000203166002900480156112545780601f1061122957610100808354040283529160200191611254565b820191906000526020600020905b81548152906001019060200180831161123757829003601f168201915b5050505050815250509050806000015181602001518191508090509250925050915091565b6000600180549050905090565b61128e611560565b6040518060e00160405280898152602001888152602001878152602001868152602001858152602001838152602001848152509050600060016000839080600181540180825580915050906001820390600052602060002090600702016000909192909190915060008201518160000190805190602001906113119291906114e0565b50602082015181600101908051906020019061132e9291906114e0565b50604082015181600201908051906020019061134b9291906114e0565b5060608201518160030190805190602001906113689291906114e0565b5060808201518160040190805190602001906113859291906114e0565b5060a08201518160050190805190602001906113a29291906114e0565b5060c0820151816006015550500390507f8293f4e01368efdeac589d77db9b3e46b56be3d118c53292b595171e8cb7bdde816040518082815260200191505060405180910390a1505050505050505050565b60008080549050905090565b60606002828154811061140f57fe5b906000526020600020018054600181600116156101000203166002900480601f0160208091040260200160405190810160405280929190818152602001828054600181600116156101000203166002900480156114ad5780601f10611482576101008083540402835291602001916114ad565b820191906000526020600020905b81548152906001019060200180831161149057829003601f168201915b50505050509050919050565b6000600280549050905090565b604051806040016040528060608152602001606081525090565b828054600181600116156101000203166002900490600052602060002090601f016020900481019282601f1061152157805160ff191683800117855561154f565b8280016001018555821561154f579182015b8281111561154e578251825591602001919060010190611533565b5b50905061155c919061161d565b5090565b6040518060e00160405280606081526020016060815260200160608152602001606081526020016060815260200160608152602001600081525090565b828054600181600116156101000203166002900490600052602060002090601f016020900481019282601f106115de57805160ff191683800117855561160c565b8280016001018555821561160c579182015b8281111561160b5782518255916020019190600101906115f0565b5b509050611619919061161d565b5090565b61163f91905b8082111561163b576000816000905550600101611623565b5090565b9056fea265627a7a723158208fa53da72b74001fe337585ec171e06d855d2a5bbc18c3ff5b11dba876619aaa64736f6c634300050c0032",
  "source": "pragma solidity ^0.5.0;\n\ncontract ForumApp {\n\n    event OnPostAdded(uint postId);\n    event OnCatAdded(uint catId);\n    event OnUserAdded(uint userId);\n\n    struct User {\n        string addr;\n        string name;\n    }\n\n    struct Post {\n        string id;\n        string category;\n        string title;\n        string content;\n        string user;\n        string image_hash;\n        uint   date;\n    }\n\n    Post[] posts;\n    User[] users;\n    string[] categorys;\n\n    function addPost(string memory id,    string memory category,\n                     string memory title, string memory content,\n                     string memory user,  uint   date,\n                     string memory image_hash) public {\n        Post memory post = Post({\n            id: id, \n            category: category, \n            title:    title, \n            content:  content,\n            user:     user, \n            date:     date,\n            image_hash: image_hash\n        });\n            \n        uint postId = posts.push(post) - 1;\n        emit OnPostAdded(postId);\n    }\n\n    function getPostLength() public view returns(uint length){\n        return posts.length;\n    }\n    \n    function getPosts(uint idx) public view \n    returns(string memory id,    string memory category, \n            string memory title, string memory content,\n            string memory user,  uint   date, string memory image_hash){\n\n        Post memory post = posts[idx];\n        return(post.id,    post.category, \n               post.title, post.content,\n               post.user,  post.date,\n               post.image_hash);\n    } \n\n    function addCategory(string memory category) public {\n        uint catId = categorys.push(category) - 1;\n        emit OnCatAdded(catId);\n    }\n\n    function getCategoryLength() public view returns(uint length){\n        return categorys.length;\n    }\n    \n    function getCategorys(uint idx) public view returns(string memory category){\n        return categorys[idx];\n    } \n\n    function addUser(string memory addr, string memory name) public {\n        User memory user = User({\n            addr: addr, \n            name: name \n        });\n            \n        uint userId = users.push(user) - 1;\n        emit OnUserAdded(userId);\n    }\n\n    function getUserLength() public view returns(uint length){\n        return users.length;\n    }\n    \n    function getUsers(uint idx) public view \n    returns(string memory addr, string memory name){\n        User memory user = users[idx];\n        return(user.addr, user.name);\n    } \n\n}\n",
  "sourcePath": "/Users/pxpxkao1418/Desktop/網多實驗/Blockchain/NMLabFinalProject/contracts/ForumApp.sol",
  "compiler": {
    "name": "solc",
    "version": "0.5.12+commit.7709ece9.Emscripten.clang"
  },
  "schemaVersion": "3.0.18",
  "updatedAt": "2019-12-21T08:45:05.532Z",
  "networkType": "ethereum",
  "devdoc": {
    "methods": {}
  },
  "userdoc": {
    "methods": {}
  }
}