{
  "contractName": "TodoApp",
  "abi": [
    {
      "anonymous": false,
      "inputs": [
        {
          "indexed": false,
          "name": "todoId",
          "type": "uint256"
        }
      ],
      "name": "OnPostAdded",
      "type": "event"
    },
    {
      "anonymous": false,
      "inputs": [
        {
          "indexed": false,
          "name": "todoId",
          "type": "uint256"
        }
      ],
      "name": "OnTodoAdded",
      "type": "event"
    },
    {
      "anonymous": false,
      "inputs": [
        {
          "indexed": false,
          "name": "todoId",
          "type": "uint256"
        }
      ],
      "name": "OnTodoDeleted",
      "type": "event"
    },
    {
      "anonymous": false,
      "inputs": [
        {
          "indexed": false,
          "name": "todoId",
          "type": "uint256"
        }
      ],
      "name": "OnTodoCompleted",
      "type": "event"
    },
    {
      "anonymous": false,
      "inputs": [
        {
          "indexed": false,
          "name": "todoId",
          "type": "uint256"
        }
      ],
      "name": "OnTodoUndone",
      "type": "event"
    },
    {
      "constant": false,
      "inputs": [
        {
          "name": "id",
          "type": "string"
        },
        {
          "name": "category",
          "type": "string"
        },
        {
          "name": "title",
          "type": "string"
        },
        {
          "name": "content",
          "type": "string"
        }
      ],
      "name": "addPost",
      "outputs": [],
      "payable": false,
      "stateMutability": "nonpayable",
      "type": "function"
    },
    {
      "constant": true,
      "inputs": [],
      "name": "getPostLength",
      "outputs": [
        {
          "name": "length",
          "type": "uint256"
        }
      ],
      "payable": false,
      "stateMutability": "view",
      "type": "function"
    },
    {
      "constant": true,
      "inputs": [
        {
          "name": "idx",
          "type": "uint256"
        }
      ],
      "name": "getPosts",
      "outputs": [
        {
          "name": "id",
          "type": "string"
        },
        {
          "name": "category",
          "type": "string"
        },
        {
          "name": "title",
          "type": "string"
        },
        {
          "name": "content",
          "type": "string"
        }
      ],
      "payable": false,
      "stateMutability": "view",
      "type": "function"
    },
    {
      "constant": true,
      "inputs": [
        {
          "name": "_todoId",
          "type": "uint256"
        }
      ],
      "name": "isTodoValid",
      "outputs": [
        {
          "name": "isValid",
          "type": "bool"
        }
      ],
      "payable": false,
      "stateMutability": "view",
      "type": "function"
    },
    {
      "constant": true,
      "inputs": [
        {
          "name": "_todoId",
          "type": "uint256"
        }
      ],
      "name": "isTodoCompleted",
      "outputs": [
        {
          "name": "isValid",
          "type": "bool"
        }
      ],
      "payable": false,
      "stateMutability": "view",
      "type": "function"
    },
    {
      "constant": true,
      "inputs": [],
      "name": "getTodoList",
      "outputs": [
        {
          "name": "",
          "type": "uint256[]"
        },
        {
          "name": "",
          "type": "bool[]"
        }
      ],
      "payable": false,
      "stateMutability": "view",
      "type": "function"
    },
    {
      "constant": false,
      "inputs": [
        {
          "name": "_taskName",
          "type": "string"
        }
      ],
      "name": "addTodo",
      "outputs": [],
      "payable": false,
      "stateMutability": "nonpayable",
      "type": "function"
    },
    {
      "constant": false,
      "inputs": [
        {
          "name": "_todoId",
          "type": "uint256"
        }
      ],
      "name": "deleteTodo",
      "outputs": [],
      "payable": false,
      "stateMutability": "nonpayable",
      "type": "function"
    },
    {
      "constant": false,
      "inputs": [
        {
          "name": "_todoId",
          "type": "uint256"
        }
      ],
      "name": "completeTodo",
      "outputs": [],
      "payable": false,
      "stateMutability": "nonpayable",
      "type": "function"
    },
    {
      "constant": false,
      "inputs": [
        {
          "name": "_todoId",
          "type": "uint256"
        }
      ],
      "name": "undoneTodo",
      "outputs": [],
      "payable": false,
      "stateMutability": "nonpayable",
      "type": "function"
    }
  ],
  "bytecode": "0x608060405234801561001057600080fd5b5061133e806100206000396000f3fe608060405234801561001057600080fd5b506004361061009e5760003560e01c80634c57e97a116100665780634c57e97a146103d75780636e3c6738146106575780637a3f48a81461068557806395ffebf5146106cb578063d597ad29146107865761009e565b806304048500146100a35780630c7a16be146100d15780631d45cddc1461017857806320fe2144146103635780633850e7d514610391575b600080fd5b6100cf600480360360208110156100b957600080fd5b81019080803590602001909291905050506107a4565b005b6100d9610891565b604051808060200180602001838103835285818151815260200191508051906020019060200280838360005b83811015610120578082015181840152602081019050610105565b50505050905001838103825284818151815260200191508051906020019060200280838360005b83811015610162578082015181840152602081019050610147565b5050505090500194505050505060405180910390f35b6101a46004803603602081101561018e57600080fd5b81019080803590602001909291905050506109b6565b6040518080602001806020018060200180602001858103855289818151815260200191508051906020019080838360005b838110156101f05780820151818401526020810190506101d5565b50505050905090810190601f16801561021d5780820380516001836020036101000a031916815260200191505b50858103845288818151815260200191508051906020019080838360005b8381101561025657808201518184015260208101905061023b565b50505050905090810190601f1680156102835780820380516001836020036101000a031916815260200191505b50858103835287818151815260200191508051906020019080838360005b838110156102bc5780820151818401526020810190506102a1565b50505050905090810190601f1680156102e95780820380516001836020036101000a031916815260200191505b50858103825286818151815260200191508051906020019080838360005b83811015610322578082015181840152602081019050610307565b50505050905090810190601f16801561034f5780820380516001836020036101000a031916815260200191505b509850505050505050505060405180910390f35b61038f6004803603602081101561037957600080fd5b8101908080359060200190929190505050610ca4565b005b6103bd600480360360208110156103a757600080fd5b8101908080359060200190929190505050610d92565b604051808215151515815260200191505060405180910390f35b610655600480360360808110156103ed57600080fd5b810190808035906020019064010000000081111561040a57600080fd5b82018360208201111561041c57600080fd5b8035906020019184600183028401116401000000008311171561043e57600080fd5b91908080601f016020809104026020016040519081016040528093929190818152602001838380828437600081840152601f19601f820116905080830192505050505050509192919290803590602001906401000000008111156104a157600080fd5b8201836020820111156104b357600080fd5b803590602001918460018302840111640100000000831117156104d557600080fd5b91908080601f016020809104026020016040519081016040528093929190818152602001838380828437600081840152601f19601f8201169050808301925050505050505091929192908035906020019064010000000081111561053857600080fd5b82018360208201111561054a57600080fd5b8035906020019184600183028401116401000000008311171561056c57600080fd5b91908080601f016020809104026020016040519081016040528093929190818152602001838380828437600081840152601f19601f820116905080830192505050505050509192919290803590602001906401000000008111156105cf57600080fd5b8201836020820111156105e157600080fd5b8035906020019184600183028401116401000000008311171561060357600080fd5b91908080601f016020809104026020016040519081016040528093929190818152602001838380828437600081840152601f19601f820116905080830192505050505050509192919290505050610dc6565b005b6106836004803603602081101561066d57600080fd5b8101908080359060200190929190505050610eda565b005b6106b16004803603602081101561069b57600080fd5b8101908080359060200190929190505050610fc7565b604051808215151515815260200191505060405180910390f35b610784600480360360208110156106e157600080fd5b81019080803590602001906401000000008111156106fe57600080fd5b82018360208201111561071057600080fd5b8035906020019184600183028401116401000000008311171561073257600080fd5b91908080601f016020809104026020016040519081016040528093929190818152602001838380828437600081840152601f19601f820116905080830192505050505050509192919290505050611079565b005b61078e611174565b6040518082815260200191505060405180910390f35b806107ae81610d92565b610820576040517f08c379a000000000000000000000000000000000000000000000000000000000815260040180806020018281038252601a8152602001807f546f646f206d7573742062652076616c696420746f2063616c6c00000000000081525060200191505060405180910390fd5b600080838154811061082e57fe5b906000526020600020906002020160010160006101000a81548160ff0219169083151502179055507f3e6e017a26a71c185056d52187a42b48f458d6d60f35fc28b54df4a3388e4c66826040518082815260200191505060405180910390a15050565b606080600060606108a0611181565b80935081925050506060826040519080825280602002602001820160405280156108d95781602001602082028038833980820191505090505b50905060608360405190808252806020026020018201604052801561090d5781602001602082028038833980820191505090505b50905060008090505b848110156109a757600084828151811061092c57fe5b602002602001015190508084838151811061094357fe5b6020026020010181815250506000818154811061095c57fe5b906000526020600020906002020160010160009054906101000a900460ff1683838151811061098757fe5b602002602001019015159081151581525050508080600101915050610916565b50818195509550505050509091565b6060806060806109c4611220565b600186815481106109d157fe5b9060005260206000209060040201604051806080016040529081600082018054600181600116156101000203166002900480601f016020809104026020016040519081016040528092919081815260200182805460018160011615610100020316600290048015610a835780601f10610a5857610100808354040283529160200191610a83565b820191906000526020600020905b815481529060010190602001808311610a6657829003601f168201915b50505050508152602001600182018054600181600116156101000203166002900480601f016020809104026020016040519081016040528092919081815260200182805460018160011615610100020316600290048015610b255780601f10610afa57610100808354040283529160200191610b25565b820191906000526020600020905b815481529060010190602001808311610b0857829003601f168201915b50505050508152602001600282018054600181600116156101000203166002900480601f016020809104026020016040519081016040528092919081815260200182805460018160011615610100020316600290048015610bc75780601f10610b9c57610100808354040283529160200191610bc7565b820191906000526020600020905b815481529060010190602001808311610baa57829003601f168201915b50505050508152602001600382018054600181600116156101000203166002900480601f016020809104026020016040519081016040528092919081815260200182805460018160011615610100020316600290048015610c695780601f10610c3e57610100808354040283529160200191610c69565b820191906000526020600020905b815481529060010190602001808311610c4c57829003601f168201915b505050505081525050905080600001518160200151826040015183606001518393508292508191508090509450945094509450509193509193565b80610cae81610d92565b610d20576040517f08c379a000000000000000000000000000000000000000000000000000000000815260040180806020018281038252601a8152602001807f546f646f206d7573742062652076616c696420746f2063616c6c00000000000081525060200191505060405180910390fd5b600160008381548110610d2f57fe5b906000526020600020906002020160010160006101000a81548160ff0219169083151502179055507f61d1105621ac231cbad3b861dbf7afa380522c35d47c2dc979cd1da098689104826040518082815260200191505060405180910390a15050565b6000808281548110610da057fe5b906000526020600020906002020160010160019054906101000a900460ff169050919050565b610dce611220565b6040518060800160405280868152602001858152602001848152602001838152509050600060018083908060018154018082558091505090600182039060005260206000209060040201600090919290919091506000820151816000019080519060200190610e3e929190611248565b506020820151816001019080519060200190610e5b929190611248565b506040820151816002019080519060200190610e78929190611248565b506060820151816003019080519060200190610e95929190611248565b5050500390507f8293f4e01368efdeac589d77db9b3e46b56be3d118c53292b595171e8cb7bdde816040518082815260200191505060405180910390a1505050505050565b80610ee481610d92565b610f56576040517f08c379a000000000000000000000000000000000000000000000000000000000815260040180806020018281038252601a8152602001807f546f646f206d7573742062652076616c696420746f2063616c6c00000000000081525060200191505060405180910390fd5b6000808381548110610f6457fe5b906000526020600020906002020160010160016101000a81548160ff0219169083151502179055507f73e4229b811312fffcc660ed4dc33edcb38ca330ced2c471913a1c46b81509e3826040518082815260200191505060405180910390a15050565b600081610fd381610d92565b611045576040517f08c379a000000000000000000000000000000000000000000000000000000000815260040180806020018281038252601a8152602001807f546f646f206d7573742062652076616c696420746f2063616c6c00000000000081525060200191505060405180910390fd5b6000838154811061105257fe5b906000526020600020906002020160010160009054906101000a900460ff16915050919050565b6110816112c8565b6040518060600160405280838152602001600015158152602001600115158152509050600060016000839080600181540180825580915050906001820390600052602060002090600202016000909192909190915060008201518160000190805190602001906110f2929190611248565b5060208201518160010160006101000a81548160ff02191690831515021790555060408201518160010160016101000a81548160ff02191690831515021790555050500390507f6edbfebf4adc3e180444860a21cd838446f00049410a44c6ec4a178a2ebe529b816040518082815260200191505060405180910390a1505050565b6000600180549050905090565b6060600060606000805490506040519080825280602002602001820160405280156111bb5781602001602082028038833980820191505090505b509050600080905060008090505b600080549050811015611213576111df81610d92565b1561120657808383815181106111f157fe5b60200260200101818152505081806001019250505b80806001019150506111c9565b5081819350935050509091565b6040518060800160405280606081526020016060815260200160608152602001606081525090565b828054600181600116156101000203166002900490600052602060002090601f016020900481019282601f1061128957805160ff19168380011785556112b7565b828001600101855582156112b7579182015b828111156112b657825182559160200191906001019061129b565b5b5090506112c491906112ed565b5090565b6040518060600160405280606081526020016000151581526020016000151581525090565b61130f91905b8082111561130b5760008160009055506001016112f3565b5090565b9056fea165627a7a7230582031a9c91d4ccd6a881f1c8cd651533c7e7034aa185be226b17baaaede25f2bc050029",
  "source": "pragma solidity ^0.5.0;\n\n// Reference: https://github.com/pomelyu/EthereumTodo\n\ncontract TodoApp {\n\n    event OnPostAdded(uint todoId);\n    event OnTodoAdded(uint todoId);\n    event OnTodoDeleted(uint todoId);\n    event OnTodoCompleted(uint todoId);\n    event OnTodoUndone(uint todoId);\n\n    struct User {\n        string addr;\n        string name;\n    }\n\n    struct Post {\n        string id;\n        string category;\n        string title;\n        string content;\n    }\n\n    struct Todo {\n        string taskName;\n        bool isComplete;\n        bool isValid;\n    }\n\n    Todo[] todos;\n    Post[] posts;\n    User[] users;\n    string[] categorys;\n\n\n\n    // Modifier\n    modifier isValidTodo(uint _todoId) {\n        require(isTodoValid(_todoId), \"Todo must be valid to call\");\n        _;\n    }\n\n\n    function addPost(string memory id, string memory category,\n                     string memory title, string memory content) public {\n        Post memory post = Post({\n            id: id, \n            category: category, \n            title: title, \n            content: content});\n            \n        uint postId = posts.push(post) - 1;\n        emit OnPostAdded(postId);\n    }\n\n    function getPostLength() public view returns(uint length){\n        return posts.length;\n    }\n    \n    function getPosts(uint idx) public view \n    returns(string memory id, string memory category, string memory title, string memory content){\n        Post memory post = posts[idx];\n        return(post.id, post.category, post.title, post.content);\n    } \n    // Public function\n\n    //function getPosts() public view returns(){\n    //    \n    //}\n    \n    function isTodoValid(uint _todoId) public view returns(bool isValid) {\n        return todos[_todoId].isValid;\n    }\n\n    function isTodoCompleted(uint _todoId) public view isValidTodo(_todoId) returns(bool isValid) {\n        return todos[_todoId].isComplete;\n    }\n\n    function getTodoList() public view returns(uint[] memory, bool[] memory) {\n        uint len;\n        uint[] memory valids;\n\n        (valids, len) = _getValidTodos();\n\n        uint[] memory ids = new uint[](len);\n        bool[] memory isCompletes = new bool[](len);\n        for (uint i = 0; i < len; i++) {\n            uint id = valids[i];\n            ids[i] = id;\n            isCompletes[i] = todos[id].isComplete;\n        }\n        return (ids, isCompletes);\n    }\n\n    function addTodo(string memory _taskName) public {\n        Todo memory todo = Todo(_taskName, false, true);\n        uint todoId = todos.push(todo) - 1;\n\n        emit OnTodoAdded(todoId);\n    }\n\n    function deleteTodo(uint _todoId) public isValidTodo(_todoId) {\n        todos[_todoId].isValid = false;\n\n        emit OnTodoDeleted(_todoId);\n    }\n\n    function completeTodo(uint _todoId) public isValidTodo(_todoId) {\n        todos[_todoId].isComplete = true;\n\n        emit OnTodoCompleted(_todoId);\n    }\n\n    function undoneTodo(uint _todoId) public isValidTodo(_todoId) {\n        todos[_todoId].isComplete = false;\n\n        emit OnTodoUndone(_todoId);\n    }\n\n    // Private methods\n    function _getValidTodos() private view returns(uint[] memory valids, uint length) {\n        uint[] memory validTodos = new uint[](todos.length);\n        uint count = 0;\n        for (uint i = 0; i < todos.length; i++) {\n            if (isTodoValid(i)) {\n                validTodos[count] = i;\n                count++;\n            }\n        }\n        return(validTodos, count);\n    }\n}",
  "sourcePath": "/Users/isabel/Desktop/NMLabFinalProject/contracts/TodoApp.sol",
  "compiler": {
    "name": "solc",
    "version": "0.5.8+commit.23d335f2.Emscripten.clang"
  },
  "schemaVersion": "3.0.16",
  "updatedAt": "2019-12-09T09:08:12.654Z",
  "devdoc": {
    "methods": {}
  },
  "userdoc": {
    "methods": {}
  }
}